{"abi":[{"type":"constructor","inputs":[{"name":"_unlockTime","type":"uint256","internalType":"uint256"}],"stateMutability":"payable"},{"type":"function","name":"owner","inputs":[],"outputs":[{"name":"","type":"address","internalType":"address payable"}],"stateMutability":"view"},{"type":"function","name":"unlockTime","inputs":[],"outputs":[{"name":"","type":"uint256","internalType":"uint256"}],"stateMutability":"view"},{"type":"function","name":"withdraw","inputs":[],"outputs":[],"stateMutability":"nonpayable"},{"type":"event","name":"Withdrawal","inputs":[{"name":"amount","type":"uint256","indexed":false,"internalType":"uint256"},{"name":"when","type":"uint256","indexed":false,"internalType":"uint256"}],"anonymous":false}],"bytecode":{"object":"0x60806040526040516103183803806103188339810160408190526020916097565b804210607e5760405162461bcd60e51b815260206004820152602360248201527f556e6c6f636b2074696d652073686f756c6420626520696e207468652066757460448201526275726560e81b606482015260840160405180910390fd5b600055600180546001600160a01b0319163317905560af565b60006020828403121560a857600080fd5b5051919050565b61025a806100be6000396000f3fe608060405234801561001057600080fd5b50600436106100415760003560e01c8063251c1aa3146100465780633ccfd60b146100625780638da5cb5b1461006c575b600080fd5b61004f60005481565b6040519081526020015b60405180910390f35b61006a6100b1565b005b60015461008c9073ffffffffffffffffffffffffffffffffffffffff1681565b60405173ffffffffffffffffffffffffffffffffffffffff9091168152602001610059565b600054421015610122576040517f08c379a000000000000000000000000000000000000000000000000000000000815260206004820152601660248201527f596f752063616e2774207769746864726177207965740000000000000000000060448201526064015b60405180910390fd5b60015473ffffffffffffffffffffffffffffffffffffffff1633146101a3576040517f08c379a000000000000000000000000000000000000000000000000000000000815260206004820152601460248201527f596f75206172656e277420746865206f776e65720000000000000000000000006044820152606401610119565b604080514781524260208201527fbf2ed60bd5b5965d685680c01195c9514e4382e28e3a5a2d2d5244bf59411b93910160405180910390a160015460405173ffffffffffffffffffffffffffffffffffffffff909116904780156108fc02916000818181858888f19350505050158015610221573d6000803e3d6000fd5b5056fea2646970667358221220ff8d429ef1c76c8974fc4ae191f9b7d4d9e7c7177fe6f2c5beb79d407ce286e864736f6c634300081a0033","linkReferences":{}},"methodIdentifiers":{"owner()":"8da5cb5b","unlockTime()":"251c1aa3","withdraw()":"3ccfd60b"},"id":0}